:1000000000800020BD01000089E1000041E1000006
:1000100041E1000041E1000041E1000041E1000058
:1000200041E1000041E1000041E1000089E1000000
:1000300089E1000041E10000E5FD0000350001001C
:1000400089E1000089E1000089E1000089E1000008
:1000500089E1000089E1000089E1000089E10000F8
:1000600089E1000089E1000089E1000089E10000E8
:1000700089E1000089E1000089E1000089E10000D8
:1000800089E1000089E1000089E1000089E10000C8
:1000900089E1000089E1000089E1000089E10000B8
:1000A0007D5E000089E1000089E1000089E1000037
:1000B00089E1000089E1000089E1000089E1000098
:1000C00089E1000089E1000089E1000089E1000088
:1000D00089E1000089E1000089E1000089E1000078
:1000E00089E1000089E1000089E1000089E1000068
:1000F00089E100003905010089E100006506010081
:1001000089E100009107010089E1000089E1000018
:1001100089E1000089E1000089E1000089E1000037
:1001200089E1000089E1000089E1000089E1000027
:1001300089E1000089E1000089E1000089E1000017
:1001400089E1000089E1000089E1000089E1000007
:1001500089E1000089E1000089E1000089E10000F7
:1001600089E10000E1E8000089E1000089E1000088
:1001700089E1000089E1000089E1000089E10000D7
:1001800089E1000089E1000089E1000089E10000C7
:1001900089E1000089E1000089E1000089E10000B7
:1001A00089E1000089E1000089E1000089E10000A7
:1001B00089E1000089E1000071FB0000564B4CF220
:1001C000205210B51A804DF628121A8000BF00BFC9
:1001D00000F090FC514B4FF010621A60504A9A6048
:1001E000504ADA60504A136813F4807304D14F49BF
:1001F0000B604FF4A85313604D4B1A78110703D5C9
:100200001A7842F008021A704A4B4B492A221A7097
:100210004A4A4B4B8B4204D252F8040F43F8040B6A
:10022000F8E7484B484900228B4202D243F8042B9E
:10023000FAE74649464A002352F8230041F82300D2
:1002400001336F2BF8D1434B434A802103F8011B44
:100250009342FBD1414B3D4A1A60414B8A221A70AE
:10026000A3F5805324225A70A0221A709A7992071B
:10027000FCD59A79D406FCD43A4A937903F00C035E
:10028000082B384BF9D103221A7140225A719A79FE
:100290009006FCD5334A9179324B4906FBD5324A58
:1002A000324911600221516020221A709A7902F0BD
:1002B0000C020C2AFAD12E4B2E4A1A602E4B2F4AD2
:1002C0001A6000225A60072243F8042C2C4AC3F813
:1002D0000C2D62B60EF07AF8144B1B68DA0705D5C0
:1002E00028480EF061F8284B284A1A60284B1B78E2
:1002F0005B0609D5244C254B22689A4204D121483B
:100300000EF052F80023236011F028FE0DF040FF9C
:1003100010F070F8FEE700BF0E200540308004406A
:10032000823F04000100002B10D0034014D0034092
:1003300002D0074000E00740300A0020D8A40100A6
:1003400020F9FF1F300A00208059002000F4FF1F11
:100350000000000000E400E05FE400E008ED00E0E1
:100360000050064000400640448004400000030165
:1003700004800440C010050014E000E0FF76010096
:1003800000002020638F3E5F1CE00340A5C3945A09
:1003900000F00740FFFFFFFFFFFFFFFFFFFFFFFF32
:1003A000FFFFFFFFFFFFFFFFFFFFFFFFFFFFFFFF5D
:1003B000FFFFFFFFFFFFFFFFFFFFFFFFFFFFFFFF4D
:1003C000FFFFFFFFFFFFFFFFFFFFFFFFFFFFFFFF3D
:1003D000FFFFFFFFFFFFFFFFFFFFFFFFFFFFFFFF2D
:1003E000FFFFFFFFFFFFFFFFFFFFFFFFFFFFFFFF1D
:1003F000FFFFFFFFFFFFFFFFFFFFFFFFFFFFFFFF0D
:10040000FFFFFFFFFFFFFFFFFFFFFFFFDEF9FFFF23
:1004100010B5054C237833B9044B13B10448AFF33E
:1004200000800123237010BD300A0020000000006E
:10043000D4A40100084B10B51BB108490848AFF31C
:1004400000800848036803B910BD074B002BFBD0A0
:10045000BDE81040184700BF00000000340A00202B
:10046000D4A40100300A00200000000000207047E2
:10047000704700BFF8B55548554D564C297803785C
:100480002278DFF868E1544F544E120442EA032305
:10049000FF222A700270802022708EF800003870CF
:1004A000B2794F480B4312F00C0FC36002D1B379FD
:1004B000DC063DD4494A9379C3F38103032B40D032
:1004C000464B9A79C2F38102022A42D0434A937979
:1004D000C3F38103022B53D0404A9379C3F38103C2
:1004E000022B61D03D4A9379C3F38103012B51D094
:1004F0003A4A9379C3F38103012B5CD0374B9A7945
:1005000012F00C0F03D19A79D20600D49B79354DA5
:10051000354B2A7853F82240D4B1236820469B6893
:1005200098472B7804EB83046468002CF5D1F8BD60
:10053000B3799806EBD5294A9379C3F38103032B4A
:10054000BED19379D906BBD493799B06DFD4B7E7A4
:10055000F8BD9A79D706B9D49A799606B6D559785E
:1005600001F0020101F0FF020029AFD120211A7031
:100570001A461970937903F00C030C2BFAD1C6E7D5
:100580009379DD06A8D493799C06A5D4537898076F
:10059000BDD5A1E79379DF06AAD593799E06A7D4A6
:1005A00053789D07B3D4A3E79379D9069AD45378A7
:1005B0009B07ACD496E79379DC069FD59379980690
:1005C0009CD453789907A2D598E700BF06C007408E
:1005D00005C0074007C0074009C00740004006406B
:1005E0005859002030560020F055002008C0074020
:1005F00090F92410104B03604B1C06D0F0B40F4E42
:1006000056F82130984201D0F0BC70470C4F57F893
:10061000213033B18D0000245A1953685460002BE7
:10062000FAD1084C23780022013B237047F821209F
:1006300046F82120E8E700BF249201001056002070
:10064000F05500203156002038B590F924506B1C2D
:100650001BD00E4B0E4953F825400E4BEDB24FF018
:10066000FF320D701A6084B1AD0002E02C44646862
:100670005CB194F82530002BF8D0236820462C4438
:100680001B6898476468002CF3D138BDF0550020F2
:1006900030560020B8F3FF1F704700BF027C02F005
:1006A000080202F0FF0332B1C36A406A181A48BF59
:1006B0006FF0004070471846704700BF90F9241053
:1006C000104B03604B1C06D0F0B40F4E56F821308F
:1006D000984201D0F0BC70470C4F57F8213033B12D
:1006E0008D0000245A1953685460002BFAD1084C2D
:1006F00023780022013B237047F8212046F821206F
:10070000E8E700BF2492010010560020F0550020B9
:100710003156002090F92410104B03604B1C06D07A
:10072000F0B40F4E56F82130984201D0F0BC70471B
:100730000C4F57F8213033B18D0000245A195368FB
:100740005460002BFAD1084C23780022013B23701F
:1007500047F8212046F82120E8E700BF2492010055
:1007600010560020F055002031560020704700BF81
:1007700010B5002104460FF041F9B0B1B4F8B4311E
:100780009BB2C3B1B4F8B031B4F8B2219BB201331B
:10079000632BC8BF002392B2934207D09A1D04EB8B
:1007A00082029BB25060A4F8B03110BDD4F8B831C9
:1007B0000133C4F8B831BDE810400FF0DBB800BF1A
:1007C000103008F03FBB00BF00B583B002AB012280
:1007D00003F8011D1030194608F034FB03B05DF832
:1007E00004FB00BF10B5044B044640F8103B09F071
:1007F000CBFD204610BD00BFDC9101002DE9F0418A
:100800000E4680460DF0CAFD234C20600AF092FF90
:10081000054620680AF06AFF074620680AF054FF80
:10082000A5F2BC739BB27F2B02D8FAB20C2A28D94E
:100830000023A8F8003020680AF06AFF0746206805
:100840000AF01EFF054620680AF02CFFFBB2172BAA
:1008500013D8EBB23B2B10D8C3B23B2B0DD8FB0205
:100860006D0103F4FF2305F4FF552B43C0F346004D
:1008700003439BB23380BDE8F08100233380BDE8A1
:10088000F081C0B21F28D3D87F0107F4FF57384347
:1008900040EA43239BB2CCE72C4F0020103008F0F5
:1008A0008DB900BF103008F071BA00BF00B583B039
:1008B00001220DF10701103008F0B6F801280CBF35
:1008C0009DF807004FF0FF3003B05DF804FB00BF58
:1008D00010B504460FF0D2F8204610BDF8B5044616
:1008E00004200D460DF08AFE074603200DF086FE1B
:1008F00006462FBB224F234A3B680121132B117060
:1009000036DD0133642B3B6037DDC82BD4BF0534A3
:100910003C3466B91C4E1B4A33680121132B1170FD
:1009200020DD3C2C10DC01233360013C02E0164B3F
:1009300000221A60002CB8BF2C460EDA2046F8BD03
:100940000F4B00221A60E4E733680133642B3360F5
:10095000EBDDC82BD4BF053C3C3CA542B8BF00240E
:100960002046F8BDC8200DF093FE3C2CDBDDEBE704
:10097000C8200DF08DFE3B68C3E70134C9E700BF16
:100980002C540020304F00209C540020836C13B165
:10099000184608F0FBB9C06C08B106F02FBC7047D0
:1009A00000B5836C83B063B1184601220DF10701D5
:1009B00008F03AF801280CD19DF8070003B05DF863
:1009C00004FBC06C28B101220DF1070105F034FFD2
:1009D000F0E74FF0FF30F1E7836C13B1184608F0F1
:1009E000EDB8C06C08B105F0F7BF4FF0FF307047AD
:1009F000826C62B1137803F0080303F0FF0003B3C5
:100A0000D3695069181A48BF6FF000407047C16C35
:100A1000C1B191F8313003F0080303F0FF0083B156
:100A2000D1E90423D1E90001101A30B463EB0101CC
:100A300000256FF000448D4208BF844200D220465A
:100A400030BC70470846704710B5044612F058F99C
:100A500001462046BDE810400EF0B4BD836C13B1D2
:100A6000184608F0EFB9C06C08B106F0EBBD70474E
:100A700000B5836C83B08DF8071043B1184601228E
:100A80000DF1070108F0DEF903B05DF804FBC06C5E
:100A90000028F9D001220DF1070106F0D3FD03B0C3
:100AA0005DF804FB002310B4104C41720261046035
:100AB0000372C36041B1194600E0026942F8231095
:100AC000427A01339A42F8DC094B1A680AB90BE002
:100AD0001A465369002BFBD1506100234361838088
:100AE000C380837210BC70471860F6E7AC910100B8
:100AF00044570020464A474B102010801B781B07A4
:100B000034D5F0B5444E454D454C31782B7822789C
:100B1000DFF82CE1434F824042EA03230B43FF22DC
:100B2000802132702A7022708EF800103970D90737
:100B30003D4A14D51A2393603C4F3D4E3D4D3E4CEB
:100B40003E49107900233B7053709370D370D3608B
:100B5000337013712B70237013700870F0BD1F0772
:100B600005D4DE0606D504239360E5E7704721230C
:100B70009360E1E79D0604D45C0604D516239360D8
:100B8000DAE79060D8E7180602D509239360D3E727
:100B9000D90502D50A239360CEE79F0502D50D2320
:100BA0009360C9E75E0502D50B239360C4E71D057A
:100BB00002D51E239360BFE7DC0402D502239360B5
:100BC000BAE7980402D507239360B5E7590402D524
:100BD00006239360B0E71F0402D515239360ABE7AB
:100BE000DE0302D524239360A6E79D0302D52223CA
:100BF0009360A1E7DC0202D5252393609CE71803EC
:100C0000F5D45903F3D49B0244BF2323936093E7A5
:100C10000020054002D0074005C0074006C007403D
:100C200007C0074009C007405859002000C00740CE
:100C300001C0074002C0074003C0074004C007408E
:100C400008C00740002976D02DE9F04F0C469100EE
:100C5000631883B05D68002D57D06B185E68002E56
:100C600050D073185F68002F49D07B18D3F80480E8
:100C7000B8F1000F3CD008EB0103D3F80490B9F1B0
:100C8000000F32D009EB0103D3F804A0BAF1000F32
:100C900027D00AEB0103D3F804B0BBF1000F18D042
:100CA0000BEB01035B6863B1194401934968FFF7DB
:100CB000C9FF019B93F825201AB11A68184653689A
:100CC00098479BF8253023B1DBF8003058465B6825
:100CD00098479AF8253023B1DAF8003050465B681F
:100CE000984799F82530002B35D198F8253063BB0B
:100CF00097F825301BB13B6838465B68984796F8F3
:100D00002530CBB995F8253063B994F8253013B95F
:100D100003B0BDE8F08F23685B68204603B0BDE8F0
:100D2000F04F18472B6828465B68984794F82530A1
:100D3000002BEDD0EFE77047336830465B6898478B
:100D400095F82530002BE0D0ECE7D8F8003040468D
:100D50005B689847CCE7D9F8003048465B6898470D
:100D6000C3E700BF90F92420531C26D01B4B2DE96C
:100D7000F04153F82240D2B2ECB19300E1184D6833
:100D8000B5B1E9184E6866B1F1184F6837B13B4408
:100D90005968FFF757FF97F82530A3B996F8253023
:100DA00063B995F825301BB12B6828465B689847D6
:100DB00094F8253063B9BDE8F08170473368304658
:100DC0005B689847EDE73B6838465B689847E5E71E
:100DD000236820465B68BDE8F0411847F0550020C5
:100DE0002DE9F0474F4CB4F8B031B4F8B22199B2C4
:100DF00093B2994238BF6431CB1A1F2B45DD4A4D5F
:100E0000DFF83C91D5F8AC01DFF8188109F580478F
:100E10000026D4F8ACA10022BAF1000F37D000218F
:100E2000002850D002F5807C4B4632F902EB23F8C3
:100E300004EC31F902EB23F802EC624503F1040300
:100E4000F3D1BAF1000F06D050460EF093FDD5F85D
:100E5000AC01C4F8AC6118B10EF08CFDC5F8AC6102
:100E600009F500794F454FF00000D2D12F4B986C17
:100E7000002840D04FF480422D4907F0E3FF0130B5
:100E800043D02C4A136820331360BDE8F087B8F8CC
:100E9000B231B8F8B0219BB292B293423FD0013345
:100EA000632B86BF524613469AB2063304EB830384
:100EB0000021D3F804A0C4F8ACA1A4F8B2210AF12F
:100EC00004020028AED1B5F8B231B5F8B0119BB22A
:100ED00089B28B4221D00133632B86BF01460B467A
:100EE00099B2063305EB83035868C5F8AC01A5F841
:100EF000B211011D96E7D86C0028C2D04FF4804291
:100F00000B4906F09FFB0130BBD1012114200DF0ED
:100F1000B1F8094B094A1A60B3E7014682E7524625
:100F20007DE700BF4C4F00200851002030540020C6
:100F3000800A00203C4F00200CED00E00400FA0580
:100F4000840A002010B50948094B048809490A4A57
:100F50001C800A480023A1F8B431A2F8B43109F08A
:100F600013FA6420BDE810400DF092BB70570020CA
:100F7000485700204C4F00200851002040540020CA
:100F80002DE9F04F9BB00DF009FAA44CA44D206060
:100F90000AF0ACFB2B68984200F015822068A14E45
:100FA0000AF0A4FB286020680AF0C4FB2B689E4965
:100FB00002469E4811F036FE9D4809F0B3FFD6F870
:100FC0007854002D00F0F98005F23C410123002502
:100FD000964A8DF830500CA88DF831508DF832506B
:100FE00007F0C2FB102000210DF016FBD6F87804A4
:100FF0008C4B002800F0D5818C4909F09FF92068BE
:10100000DFF868820AF096FB054620680AF06EFB5E
:10101000814620680AF058FB099020680AF078FBA6
:10102000824620680AF02CFB83462068814C0AF037
:1010300039FB0890D8F800000FF002FFCDE9060157
:10104000099B009394E80300089A03924B462A46B2
:10105000059104907849CDF808B0CDF804A0774800
:1010600011F0E0FD724809F05DFF00270824102010
:101070000CF0E4FE10F03AFB4FF06A5110F08AFBDE
:101080000146384610F07EFA013C0746EFD1D6F80B
:101090007844644B002C00F0758104F23C452846EE
:1010A00007F00EFA2146284607F09EFC644D296899
:1010B000002900F09580634C634A04F1100040F26F
:1010C000092309F075F9002800F08A805B4811F0C7
:1010D00017FE0246A06C002800F08381574907F0F4
:1010E000B1FEA06C2C238DF83030002800F0708108
:1010F00001220CA907F0A6FED8F80000DFF8448111
:101100000FF09EFE4FF0020E02460B46CDF800E0B7
:1011100040460FF06DF8A06C2C238DF82F3000287E
:1011200000F0718101220DF12F0107F08BFE38468E
:101130004649444F10F02EFB4FF0785110F02AFB37
:1011400080460FF07DFE4FF0020E02460B46CDF8B2
:1011500000E038460FF04CF8A06C2C238DF82E30B0
:10116000002800F0468101220DF12E0107F06AFEF1
:10117000374811F0C5FD0246A06C3249002800F046
:101180004D81334907F05EFE2E4C20460EF0C8FF1D
:101190004046304910F09CFC002840F047812E4822
:1011A00009F0F2F8D6F878041E4B28BBD3F87C047B
:1011B00028B31E4907F05CF821E0D6F87C1400291A
:1011C0003FF410AF01F588610123184A8DF8615092
:1011D0000CA88DF862508DF8635006F011F901E704
:1011E000142001210CF046FF1C4BD6F878041C4A51
:1011F0001A600C4B0028D9D00C4909F09FF80F4811
:10120000184CDFF85880164F11F07AFD01460B4854
:101210000EF0D8F914480EF083FF45E02C4F002063
:10122000A4540020844A002048920100C8520020A3
:10123000FD0700005C53002054920100A8530020D9
:10124000E45500203054002080920100CDCCBC40F9
:1012500008FAFF1F00004040405400200CED00E061
:101260000400FA05C4520020D4FFFF1F6C53002075
:101270008D4909F063F8296829B140F601238B4AAA
:101280008B4809F095F8894811F03AFD01468748E6
:101290000EF098F987480EF043FF0A200DF0F8F998
:1012A0002368B3F57A7F66DC296849B1DFF83892A4
:1012B0007E4A09F1100040F6012309F079F8A0B93F
:1012C00023687D49794801331A46236011F0AAFC4E
:1012D000D6F87804794B0028CAD1D3F87C040028CA
:1012E000C9D0714906F0C4FFC5E77548754906685D
:1012F000754C764A764B774F03C9206092E803001D
:10130000A06093E80300012202231025A282E38259
:10131000E0602561304610F029FC3146A06130467E
:1013200010F030F9014610F02DF910F01FFC6A4A58
:101330003B68E06192E803005B02D9F848206584CD
:1013400003F12401042525846062A36261608AB3ED
:10135000104621462C2207F075FD09215F480EF04A
:1013600031F9396853480EF083FE52480EF0D8FE2A
:101370001BB0BDE8F08F012114200CF07BFEC8F8F3
:10138000007091E7D3F87C44002C3FF48FAE04F555
:101390008865284605F0D4F92146284605F0DAF993
:1013A00084E6D3F87C0400283FF429AE3E4906F0D9
:1013B0005FFF24E6D9F84C000028CED021462C222D
:1013C00006F040F9C9E73D4E0CE62C238DF830308D
:1013D000E06C00283FF490AE01220CA906F032F92F
:1013E0008AE6E06C0028F0D0304906F02BF9A06CBA
:1013F00078E6F86C00283FF4C7AE01220DF12E010B
:1014000006F020F9B4E6D8F84C0000283FF48FAE7F
:1014100001220DF12F0106F015F988E6C86C0028AD
:101420003FF4B2AE2E4906F00DF9ADE6A06C98B3CC
:1014300028222C4907F006FD2B480EF071FE1C48AF
:1014400008F0A2FF0027082410200CF0F7FC10F091
:101450004DF94FF06A5110F09DF90146384610F0F1
:1014600091F8013C0746EFD1204910F093F94FF075
:10147000785110F08FF91E4910F02AFB20B147F285
:1014800030500DF005F9DDE7012114200CF0F2FDDC
:10149000184B194A1A6082E6E06C0028CCD028224A
:1014A000104906F0CFF8C7E7C8520020A853002023
:1014B00040540020D4FFFF1FE0920100844A002026
:1014C00080540020C0920100F4540020C892010012
:1014D000D09201001C540020D8920100B492010067
:1014E00008FAFF1F8892010030540020CDCCBC4088
:1014F000333353400CED00E00400FA0570B5284E7C
:10150000FFF73EFD274BD6F8AC0100241C6018B154
:101510000EF030FAC6F8AC41B6F8B241B6F8B031C8
:10152000A4B29BB29C420ED00134642C28BF00248C
:10153000A31D06EB830358680EF01CFAB6F8B03111
:101540009BB2A342F0D1184DD5F8AC01A4B201234F
:10155000A6F8B241A6F8B43120B10EF00BFA002380
:10156000C5F8AC31B5F8B241B5F8B031A4B29BB210
:101570009C420ED00134642C28BF0024A31D05EB2F
:10158000830358680EF0F6F9B5F8B0319BB2A34268
:10159000F0D1A4B20123A5F8B241A5F8B43170BDD1
:1015A0004C4F00203C4F00200851002038B51F4B05
:1015B000D3F8784424B304F23C45284606F080FF73
:1015C0002146284607F010FA194B1968B1B1194C99
:1015D000194A04F1100040F2092308F0E9FE70B145
:1015E000A06CD8B12522154907F02CFC11480EF04B
:1015F00097FD1348BDE8384008F0C6BE38BD38BD79
:10160000D3F87C44002CDFD004F58865284605F02B
:1016100097F82146284605F09DF8D5E7E06C0028AC
:10162000E4D02522054906F00DF8DFE7844A0020C2
:10163000E45500203054002080920100EC9201001B
:1016400040540020264B1B680F2B0CD8DFE803F01A
:101650000C1014181C2024282C3034383C4044082A
:10166000204B214A1A6070471E4B204A1A6070476F
:101670001C4B1F4A1A6070471A4B1E4A1A6070476B
:10168000184B1D4A1A607047164B1C4A1A60704767
:10169000144B1B4A1A607047124B1A4A1A60704763
:1016A000104B194A1A6070470E4B184A1A6070475F
:1016B0000C4B174A1A6070470A4B164A1A6070475B
:1016C000084B154A1A607047064B144A1A60704757
:1016D000044B134A1A607047024B124A1A60704753
:1016E00000FAFF1F6C530020BD549341103377C0A4
:1016F000993918C0BE0D68BFCE71153F8D090340E2
:10170000CCC9624009A7A3407DDBD140C41601418A
:1017100054FC1741D0E83041195546419FAB5F4119
:10172000A04176415E2E8641274928480B6850F833
:101730002320002A36D10133254A0B600120042BD7
:10174000107035D070B5234A234D12F823608CB049
:1017500000248DF80D40059404958DF80C6003ABC2
:1017600093E8070006AB83E807008DF8194007955A
:1017700008948DF8186093E8070009AB83E8070028
:10178000164C0B9A009204F591650CCB284604F296
:101790009C4108F013FF94F89534C4F8845443B185
:1017A0000CB070BD013A40F82320002AC3D0704726
:1017B000FEE72946204608F04DFE0028F0D00CB088
:1017C000BDE87040FFF7F2BEE054002088540020CE
:1017D000285400207053002080F0FA02844A002030
:1017E0002DE9F0438FB0044611F08AFA00B20128C7
:1017F0001CDDB4F9003044F25372934200F0A6812C
:1018000018DD44F65452934200F0DA8045F2532238
:1018100093422FD044F65212934207D10BAAE01CF8
:10182000BD4911F025FABD4B0B9A1A6001200FB08B
:10183000BDE8F08344F24E4293420FD044F252424C
:101840009342F3D10BAAE01CB34911F011FAB44B47
:101850000B9A1A6001200FB0BDE8F0830BAAE01CC0
:10186000AD4911F005FAAF4B0B9A1A6001200FB089
:10187000BDE8F0830AAD09A908AA05ABE01C0395F1
:1018800002910192009307AA06ABA74911F0F0F963
:10189000A64B079D596818689A680A9EDDF824E0EF
:1018A000DDF820C0A5F5FA65ADB20BAF2CB207C7C5
:1018B000069F05991E3415F0030F4FEAA408FDB2E8
:1018C00040F059819A4B022D8CBF1F460027994842
:1018D000994BC8EB040400FB08F06A1E03FB0400EC
:1018E000002A00EB070347DD9DF82C409048012AB1
:1018F00000FB043340D09DF82D40022A00FB043346
:101900003AD09DF82E40032A00FB043334D09DF8D2
:101910002F40042A00FB04332ED09DF83040052AC6
:1019200000FB043328D09DF83140062A00FB043325
:1019300022D09DF83240072A00FB04331CD09DF8CA
:101940003340082A00FB043316D09DF83440092A9E
:1019500000FB043310D09DF835400A2A00FB043305
:101960000AD00B2A9DF8364018BF9DF8372000FB9F
:10197000043318BF00FB02335FFA8EF2C2EB02128F
:101980005FFA8CF04FF46164920004FB0022684D12
:101990006A4C6B48C9B2013952FA86F205FB012242
:1019A0001344122123600DF00DFE216865480EF0EE
:1019B0005FFB64480EF0B4FB01200FB0BDE8F0837C
:1019C0000AAD09A908AA05ABE01C03950291019292
:1019D000009307AA06AB544911F04AF9534B079FED
:1019E0009A68186859680A9EDDF824E0DDF820C07E
:1019F000A7F5FA67BFB20BAC3DB207C4069A059CC7
:101A00001E3517F0030F4FEAA508D7B240F0B0809B
:101A1000474B022F8CBF99464FF000094549464B72
:101A2000C8EB050501FB08F17A1E03FB0510002A2F
:101A300000EB090347DD9DF82C003D49012A01FB1D
:101A4000003340D09DF82D00022A01FB00333AD02C
:101A50009DF82E00032A01FB003334D09DF82F009F
:101A6000042A01FB00332ED09DF83000052A01FB2B
:101A7000003328D09DF83100062A01FB003322D024
:101A80009DF83200072A01FB00331CD09DF833007B
:101A9000082A01FB003316D09DF83400092A01FB07
:101AA000003310D09DF835000A2A01FB00330AD01C
:101AB0000B2A9DF8360018BF9DF8372001FB003334
:101AC00018BF01FB02335FFA8EF2C2EB02125FFA1B
:101AD0008CF04FF46165920005FB0022E1B2144CDA
:101AE000164D52FA86F2013904FB01241C442046AB
:101AF0002C600CF059FC0B2113480DF063FD2146BE
:101B000000230A220F480EF031FB0E480EF008FBAE
:101B100001200FB0BDE8F083349301006CFAFF1F81
:101B200060FAFF1F7C0A002014930100309201002C
:101B3000805101000085E2018033E101344F002033
:101B400038930100D4FFFF1F28930100E01C0BAA6B
:101B50000C4911F08DF80B9B0F2B0ED90A4B042169
:101B600019600F200CF086FA01200FB0BDE8F08359
:101B70004FF0000952E70027A9E6034AD9B21360E3
:101B8000EFE700BF3493010000FAFF1F2DE9F04397
:101B90006D4F6E4BD7F8785497B04FF47A72099323
:101BA00000238DF828308DF830308DF834308DF8E2
:101BB00035308DF836300B92002D5AD005F23C4668
:101BC000304606F07DFC2946304606F00DFF0DA894
:101BD00000225F4906F0F8FE9DF83450002D56D0E3
:101BE00000252E468DF804604FF000094FF0FF08E5
:101BF00001220DF103010DA806F016FF09F1010302
:101C000016AA01284A441BB224D01D2B02F8548C7A
:101C100005DC9946ECE71D2B01DC0A2AF9D1013BD2
:101C20009BB216AA1A4402F8546C9DF804202F2A7D
:101C300004D0012B02D901A8FFF7D2FD9DF8343062
:101C40001B0711D40DA806F03BFC9DBB012017B06B
:101C5000BDE8F0839DF803200D2A08BF4B4664D1F0
:101C60001D2BDCDC9946C3E7149A129B9A42B9D12A
:101C7000E8E7D7F87C54002DA9D005F588663046F2
:101C800004F05EFD2946304604F064FD9FE7142110
:101C900030480DF097FC30480EF042FA0D222F49E3
:101CA0002F480EF0CFF92E480EF03AFA284617B01A
:101CB000BDE8F0830B212B480DF084FC00230A22A1
:101CC000214625480EF052FA23480EF029FAD7F89B
:101CD00078541D4BDDB105F23C46304606F0F0FB72
:101CE0002946304606F080FE44F2022218490DA82B
:101CF00006F06AFE21460DA806F096FF02221A4958
:101D00000DA807F09FF80DA806F0DAFB9EE7D3F8C0
:101D10007C54002DE8D005F58866304604F010FDAF
:101D20002946304604F016FDDEE716AB03EB090149
:101D3000542A09F1010301F8542C1BB27FF46BAF54
:101D4000129C0546013C8BE7844A0020B8910100B3
:101D50004C93010068930100D4FFFF1F80930100A2
:101D6000E453002058930100649301002DE9F041F1
:101D7000044604200D4616460CF040FC8046032025
:101D80000CF03CFC0746B8F1000F2AD1DFF89C802C
:101D9000244AD8F800300121132B117039DD0133AA
:101DA000642BC8F800303ADDC82BD4BF05343C346E
:101DB00067B91D4F1B4A3B680121132B117022DDAF
:101DC0003C2C16DC01233B60013C02E0164B002258
:101DD0001A60AC4209DBB442C8BF2C462046BDE8BD
:101DE000F081124B00221A60E2E734462046BDE83B
:101DF000F0813B680133642B3B60E5DDC82BD4BF29
:101E0000053C3C3CE5E7C8200CF042FC3C2CD9DD0D
:101E1000EFE7C8200CF03CFCD8F80030BFE70134F5
:101E2000C6E700BF304F00209C5400202C540020F7
:101E30002DE9F84F0CF0B2FAB24BB34E1860012105
:101E4000B248B34CB34FB44DDFF818930AF0FCFB23
:101E50000121AE480AF0FEFB26220021AB480AF021
:101E6000EFFB0322AD49A9480EF0ECF82622192118
:101E7000A6480AF0E5FB0322A949A4480EF0E2F8BF
:101E800026223221A1480AF0DBFB0322A5499F4804
:101E90000EF0D8F826224B219C480AF0D1FB0222F2
:101EA000A1499A480EF0CEF82E22002197480AF058
:101EB000C7FB316895480EF0DBF82E2219219348B4
:101EC0000AF0BEFB216891480EF0D2F82E22322192
:101ED0008E480AF0B5FB3B6855F823000FF006FC6E
:101EE00092490FF00BFD0EF0ABFF0B4602469049F6
:101EF00086480EF02DF92E224B2184480AF0A0FBD3
:101F00008C4B18680EF09CFF02460B467F488849B0
:101F10000EF01EF93B68366855F82330B00003FB1D
:101F200000F000F500402C300FF0DCFB7F490FF093
:101F3000E5FC7E490FF0E2FCD9F80030012B824627
:101F400000F014814FF07E5730460FF0CFFB39463A
:101F50000FF020FC07462068DFF80CB2764D3044C5
:101F60000FF0C4FB014638460FF0C8FC734B8046A7
:101F700018780FF0BBFB724B19680FF00BFC414651
:101F800004464FF07E500FF0FBFA6E4B19680FF0CD
:101F900001FC6D4B0746196840460FF0FBFB0146FC
:101FA00038460FF0EFFA014620460FF0A7FC6749CC
:101FB0000FF0F0FB0FF0DAFDDBF8004000230746DE
:101FC0002B606B60AB60EB6074B120460FF08AFB56
:101FD00051460FF093FC0EF033FF0EF045FD0FF06D
:101FE0005BFA286000FB06F4DBF8040068B10FF030
:101FF00079FB51460FF082FC0EF022FF0EF034FD0B
:102000000FF04AFA686000FB06F0DBF80830044481
:1020100073B118460FF066FB51460FF06FFC0EF0DF
:102020000FFF0EF021FD0FF037FAA86006FB00F35A
:10203000DBF80C001C4468B10FF054FB51460FF064
:102040005DFC0EF0FDFE0EF00FFD0FF025FAE860CE
:1020500006FB00F020440FF045FB41460FF04EFC1C
:10206000044638460FF03EFB014620460FF04EFD79
:1020700026225C2158B325480AF0E2FA05223449A9
:1020800022480DF0DFFF5C2120482E220AF0D8FA0A
:1020900030491E4881FB07313944FF17C7EB214106
:1020A0000DF0E6FF01222C4918480DF0CBFF372236
:1020B000732116480AF0C4FAD9F80020012A7BD00F
:1020C000012226491148BDE8F84F0DF0BBBF0F486B
:1020D0000AF0B6FA052222490C480DF0B3FF2E2271
:1020E0005C210A480AF0ACFA20460FF019FD1949A4
:1020F000034681FB03211944DB170448C3EB21414C
:10210000CEE700BF2C4F002060FAFF1FE4530020F1
:102110006CFAFF1F58FAFF1F14FAFF1F909301007B
:1021200094930100989301009C93010000007A446D
:10213000A09301006C530020885400205CFAFF1F1C
:1021400068FAFF1F64FAFF1F98FAFF1F000061453D
:10215000A893010007452EC224930100BC930100FF
:10216000B093010020540020E4540020154A164B7F
:1021700010781B78834286BFC3F11803C018C01AB9
:102180000FF0B4FA114A124B07461B7810788342BD
:1021900086BFC3F13C03C018C01A0FF0A7FA0D495F
:1021A000054638460FF0F6FA29460FF0EBF90A49D2
:1021B0000FF0A4FB0746C7E608490948BDE8F84FF9
:1021C0000DF040BFA4530020780A0020384F0020B3
:1021D000DC540020000070420000B444B8930100B9
:1021E000E453002038B5054609F0A4FA1E4C014618
:1021F00020460DF03DFF2D200DF0B8FA284609F0DD
:1022000075FA014620460DF033FF2D200DF0AEFA91
:10221000284609F059FA014620460DF029FF012110
:1022200012480DF0CFF9284609F072FA014620460F
:102230000DF01EFF3A200DF099FA284609F020FA19
:10224000014620460DF014FF3A200DF08FFA284683
:1022500009F028FA014620460DF00AFF2046BDE8A5
:1022600038400DF05DBF00BFD4FFFF1FDC940100BC
:102270002DE9F0434E4A4F4BDFF85091DFF8508183
:102280004D4F117898F800401A7899F80060386836
:1022900083B03C2313FB064613FB012409F038FAF4
:1022A0000546386809F0ECF9C5EB051500EB850526
:1022B000386809F03FFA00F14E0338688DF80630AF
:1022C00009F014FA8DF80500386809F0FDF9A64206
:1022D0008DF804000AD2AE4248D8AC4246D3A41BC3
:1022E000C4EB0414354D3648A40010E0AE4201D9C9
:1022F000AC421AD3C4EB0414A300A6EB061403EB00
:10230000840404F5A8342D4D2D4804F5C074102123
:102310002C600DF057F929682A480DF0A9FE2948CC
:102320000DF0FEFE03B0BDE8F08302A8002399F88B
:10233000002000F8083D98F800308DF801308DF845
:10234000022009F00BFA38600CF028F83B68834251
:1023500004DA03F5A83303F5C0733B600F211A4874
:102360000DF030F93868FFF73DFFC3E702A80023FE
:1023700099F8002000F8083D98F800308DF8022008
:102380008DF8013009F0EAF938600CF007F83B6885
:10239000094A834204DA03F5A83303F5C0731360D6
:1023A0000F2109480DF00EF93868FFF71BFF96E77B
:1023B000A4530020384F0020344F00202C5300201D
:1023C000D0930100D4FFFF1FC0930100780A0020C2
:1023D000DC54002010B500200BF0F6FD234C2070DB
:1023E00001200BF0F1FD607002200BF0EDFDA070FC
:1023F00003200BF0E9FD1E4BE07022681A600420F8
:102400000BF0E2FD207005200BF0DEFD6070062071
:102410000BF0DAFDA07007200BF0D6FD154BE07035
:1024200022681A6008200BF0CFFD134B18700920AA
:102430000BF0CAFD114B18700A200BF0C5FD104BB4
:1024400018700B200BF0C0FD0E4B18700C200BF019
:10245000BBFD0D4B18600D200BF0B6FD0B4B18604B
:102460000F200BF0B1FD0A4B186010BD98540020EE
:1024700060FAFF1F6CFAFF1F780A0020DC5400206E
:10248000A4530020384F00202054002058FAFF1F8A
:1024900000FAFF1F38B50A4C0B460546C9B2236047
:1024A0000BF0E8FD6178681C0BF0E4FDA178A81C36
:1024B0000BF0E0FDE178E81CBDE838400BF0DABD38
:1024C00098540020284B10B51968284C0020216032
:1024D000C9B20BF0CFFD617801200BF0CBFDA178E4
:1024E00002200BF0C7FDE17803200BF0C3FD204B69
:1024F000196821600420C9B20BF0BCFD6178052089
:102500000BF0B8FDA17806200BF0B4FDE1780720B0
:102510000BF0B0FD174B082019780BF0ABFD164BF4
:10252000092019780BF0A6FD144B0A2019780BF03E
:10253000A1FD134B0B2019780BF09CFD114B0C20C7
:1025400019780BF097FD104B0D2019780BF092FDC8
:102550000E4B0E2019780BF08DFD0D4B0F201978C6
:10256000BDE810400BF086BD60FAFF1F98540020B4
:102570006CFAFF1F780A0020DC540020A4530020CE
:10258000384F00202054002058FAFF1F5CFAFF1F2C
:1025900000FAFF1F2DE9F04F8DB01029079106902A
:1025A00000F0BF80202900F0B0800024631C184692
:1025B0001D4608930FF096F8E4B244F0E0630990EA
:1025C000002128460A9344F08E430B930FF0A4F8A1
:1025D00001465A480FF092F9054607980FF082F825
:1025E00001460EF0CFFF044606980FF07BF8014637
:1025F00020460FF0CFF8014628460FF07FF94FF044
:1026000001084FF07E550746C1464FF0010A4FF0D2
:10261000000B50460FF06AF839460FF0BBF804463D
:102620000FF07EFA0FF062F8014620460EF0A8FF88
:10263000294606460FF04CFA4FF0874148B1204634
:102640000FF046FA28B120460FF0C8FA354680460A
:10265000D1461AF1010A4BF1000BBBF1000F08BF84
:10266000BAF1400FD5D109F1FF34089B079E0593BD
:1026700020460296CDF81080CDF80C900FF032F87D
:102680004FF07E510EF07EFF2D490FF083F8054686
:1026900040460FF027F8014628460FF02FF94FF07B
:1026A0007C510FF077F809990FF028F90546700072
:1026B0000FF01CF8014628460FF020F90FF030FA11
:1026C000204B069A019000921F492048204E214D30
:1026D0001A460DF03DFD204920480F68220308F1FD
:1026E000FF3302F47F22C3F30B03134327F010429E
:1026F0000A6033600A9B2B600B9B03600B6843F0FE
:1027000010430B600DB0BDE8F08F154B0B9303F138
:1027100040430A934FF0804309930223114D0893DD
:102720005BE7114B0B9303F140430A934FF0814356
:10273000099304230D4D08934FE700BF001B374C4E
:10274000001BB74C00D8B805E8930100D4FFFF1F69
:1027500004F1024008F0024080F0024088F002409C
:1027600001000047001BB74B03000047001B374B1D
:102770002DE9F04F0546DFF87C82974E974F98F889
:1027800000E02E60FF2085F82400DFF86C92387896
:1027900059F820C00023BEF1060F8DB00C4685F815
:1027A000253085F826309CBF88F800309E46BCF165
:1027B000000F00F0A8808C455BD06346810001E0EB
:1027C0009C4256D00B445B68002BF9D1634603EB67
:1027D000010ADAF80430002BF9D105EB010BCAF835
:1027E0000440BEF1060F4FF0FF044FFA80FACBF819
:1027F00004308DF82C4002968DF82D308DF82E3057
:1028000085F824A0644605D8002388F80030002C01
:1028100000F0A980A24226D0234601E0934222D0B4
:102820000B445B68002BF9D104EB010CDCF804408D
:10283000002CF9D1CCF804200CAB19440024431C23
:10284000BAF1FF3F41F8244C3B708DF82CA0029662
:1028500005D0634951F82A3002AA934272D0284623
:102860000DB0BDE8F08F0130387028460DB0BDE8DE
:10287000F08F0023FF21BEF1060F02968DF82C1079
:102880008DF82D308DF82E3001D888F80030944521
:10289000E9D06346810001E09A42E4D00B445B68D2
:1028A000002BF9D18C44DCF804402CB1A4468C44B4
:1028B000DCF80440002CF9D10CAB19444FFA80FE2F
:1028C000431CBEF1FF3FCCF804203B7041F8244C80
:1028D00002968DF82CE0C2D0414951F82E3002AA60
:1028E0009342BCD159F82E304FEA8E0623B19A1983
:1028F00053685460002BFAD10023387049F82E3009
:1029000041F82E30ABE7B0B38100DFF8D4A049F82E
:10291000204005EB010C00234AF82050BEF1060FC1
:10292000CCF804304FFA80FA4FF0FF0C02968DF885
:102930002D308DF82E3085F824A08DF82CC07FF630
:1029400063AF64E759F82A304FEA8A0623B19A192F
:1029500053685460002BFAD10023387049F82A30AC
:1029600041F82A307BE7F0B11D4B49F8202002AA3C
:1029700043F8202060E71B491B480B68019243F095
:1029800080630B600368194923F0804303601520BE
:102990000BF038FC164B98F800E0019A4FF4001148
:1029A00019603878B0E70F4C0F482368019243F064
:1029B0008063236003680D4923F080430360152082
:1029C0000BF020FC0A4B019A4FF400111960387883
:1029D0004FFA80FA8100C7E72492010031560020A7
:1029E000105600200470044000700440750400007C
:1029F00000E100E0BCF3FF1FF05500202DE9F04797
:102A00000BF09AFA4FF0FF316748684D0AF0E8FB87
:102A10006749684B0A682B6000236B722B612B722D
:102A2000EB600AB9BDE01A465369002BFBD1556132
:102A30000024614E614F624B6C61AC80EC80AC72E3
:102A40005A482B60DFF8C891DFF8C8A1DFF8C881C9
:102A500003F002F806F1180230460121FEF722F8D1
:102A600007F1180201213846A6F8B041C6F8AC417A
:102A7000A6F8B241C6F8B841A6F8B441C6F800A01D
:102A8000FEF710F84846A7F8B04189E86000A7F8BB
:102A9000B241C7F800A0C7F8AC41C7F8B841A7F8E1
:102AA000B44189F8084089F80940C9F80C4089F810
:102AB00010400CF0AFFF434A4349444EDFF85CA19D
:102AC00048460FF039FA4FF00109404688E8A00067
:102AD00088F80940C8F80C4088F8104088F8089039
:102AE0000CF098FF3849374A394D40460FF024FA28
:102AF000384A394B106A394A1A600EF0F7FDFF2741
:102B0000CAF80000364B86F8254086F824702D4A16
:102B1000344974633046B46386F83C4086F82690A6
:102B200033600FF009FA304B85F8247085F82540A2
:102B3000244A2E492B60284685F8269085F82740A0
:102B400085F828400FF0F8F9324629462848294DE3
:102B5000FFF70EFE1B4A284925480FF0EDF9274BD9
:102B6000184AC3F878442826C3F87C4483F898446C
:102B700083F89564C3F8A0542149224D18460FF0FC
:102B8000DBF9214B0F4A1C714FF47A761C739C645D
:102B9000DC649E601D601D491846BDE8F0470FF0DB
:102BA000CBB90D6044E700BFE453002088530020F8
:102BB00044570020AC9101004C4F002008510020E8
:102BC000D0970100FCF9FF1FD1080000E45200205B
:102BD000AC54002014FAFF1F404F0020B4970100AE
:102BE0000C990100BD0600002099010015070000A6
:102BF000500A002001100138F1050000844A00202D
:102C00006D0700000092010030540020E50700002D
:102C10003453002044920100485300208054002087
:102C200070B5104C06460D4620460A2103F082FA84
:102C3000C6F30721204603F055F8F1B2204603F011
:102C400051F8C5F30721204603F04CF8E9B22046BD
:102C500003F048F8204603F07FFAB0FA80F040090C
:102C600070BD00BFC855002010B5184C0A21204681
:102C700003F060FA2046002103F034F820463021AA
:102C800003F030F82046002103F02CF80021204604
:102C900003F028F8204603F05FFA20460A2103F0EB
:102CA00049FA2046002103F01DF82046022103F0D6
:102CB00019F82046002103F015F82046002103F002
:102CC00011F82046BDE8104003F046BAC855002070
:102CD0000238032838B504DC002880F2AE810024D5
:102CE00000E00C240A21C848C84D03F023FA002153
:102CF000C54802F0F7FF3021C34802F0F3FF40213E
:102D0000C14802F0EFFF6021BF4802F0EBFFBE4870
:102D100003F022FA0A21BC4803F00CFA0021BA4859
:102D200002F0E0FF2621B84802F0DCFF0021B6489F
:102D300002F0D8FF6C21B44802F0D4FFB24803F08F
:102D40000BFA0A21B04803F0F5F90021AE4802F071
:102D5000C9FF2821AC4802F0C5FF0121AA4802F0B2
:102D6000C1FFF021A84802F0BDFFA74803F0F4F925
:102D70000A21A54803F0DEF90021A34802F0B2FFC2
:102D80002C21A14802F0AEFF0F219F4802F0AAFFBC
:102D900022219D4802F0A6FF9B4803F0DDF90A219D
:102DA000994803F0C7F90021974802F09BFF3C21A6
:102DB000954802F097FF0021934802F093FF00210D
:102DC000914802F08FFF904803F0C6F90A218E481F
:102DD00003F0B0F900218C4802F084FF30218A48CA
:102DE00002F080FF0021884802F07CFFE221864843
:102DF00002F078FF844803F0AFF90A21824803F01B
:102E000099F90021804802F06DFF02217E4802F00E
:102E100069FF00217C4802F065FF43217A4802F0F7
:102E200061FF794803F098F90A21774803F082F9A5
:102E30000021754802F056FF0421734802F052FF4A
:102E40000021714802F04EFF21466F4802F04AFF10
:102E50006D4803F081F90A216B4803F06BF90021FA
:102E6000694802F03FFF0621674802F03BFF01215D
:102E7000654802F037FF3021634802F033FF6248B3
:102E800003F06AF90A21604803F054F900215E4812
:102E900002F028FF0A215C4802F024FF00215A4872
:102EA00002F020FF0021584802F01CFF564803F0B2
:102EB00053F90A21544803F03DF90021524802F029
:102EC00011FF0E21504802F00DFF00214E4802F084
:102ED00009FF08214C4802F005FF4B4803F03CF97C
:102EE0000A21494803F026F90021474802F0FAFE7A
:102EF0001021454802F0F6FEFF21434802F0F2FEA1
:102F0000FF21414802F0EEFE3F4803F025F90A2177
:102F10003D4803F00FF900213B4802F0E3FE222177
:102F2000394802F0DFFE7F21374802F0DBFE7F21C7
:102F3000354802F0D7FE344803F00EF90A21324832
:102F400003F0F8F80121304802F0CCFE24212E488D
:102F500002F0C8FE00212C4802F0C4FE00212A48DD
:102F600002F0C0FE284803F0F7F80A21264803F0D3
:102F7000E1F80021244802F0B5FE2421224802F0A5
:102F8000B1FE0121204802F0ADFE14211E4802F0DE
:102F9000A9FE1D4803F0E0F80A211B4803F0CAF817
:102FA0000021194802F09EFE2A21174802F09AFEDD
:102FB0000021154802F096FE0021134802F092FE0F
:102FC000114803F0C9F8092111480CF0FBFA2968EF
:102FD00010480DF04DF80F480DF0A2F82C680A4883
:102FE0000A2103F0A7F80021074802F07BFE44EA1B
:102FF00004142021044802F075FEC4F3072102489E
:1030000002F070FEE1B207E0C855002000FAFF1F91
:1030100004940100D4FFFF1F094802F063FE084832
:1030200003F09AF8B0FA80F1490906480DF020F84B
:1030300004480DF075F8012038BD8000C4B251E697
:10304000C8550020D4FFFF1F10B5074B04461021C0
:1030500053F82000FFF79EFA044802F0E9FE2046EC
:10306000BDE81040FFF734BE14FAFF1FC85500201A
:1030700038B504460D463148012109F0E5FA2AB277
:1030800000212E4809F0DCFA204608F053FB0146E7
:103090002A480CF0EDFF2D21284809F097FA204628
:1030A00008F024FB014625480CF0E2FF2D212348BF
:1030B00009F08CFA204608F007FB01461F480CF087
:1030C000D7FF02221E491D480CF0BCFF204608F025
:1030D0001FFB092803DC3021184809F077FA204645
:1030E00008F016FB014615480CF0C2FF204608F018
:1030F000C7FA01220546134910480CF0A3FF092D19
:1031000003DC30210D4809F061FA29460B480CF028
:10311000AFFF204608F0C6FA0122044609490748D5
:103120000CF090FF092C03DC3021044809F04EFA22
:1031300021460248BDE838400CF09ABFE453002015
:1031400010940100249401002DE9F047B94D2C683A
:103150002CB1012C00F08E8030BFBDE8F0870BF061
:103160001DF9B54FDFF84C833860B448B44E0AF00F
:103170004BF80121B14809F06DFA0221AF4809F07E
:1031800063FA22462146AD4809F05AFA0A22AD49AF
:10319000AA480CF057FFA9480CF0C2FF0121A7482C
:1031A00009F052FA12222146A44809F049FA0522F0
:1031B000A549A2480CF046FFD8F800109F480131FD
:1031C0000CF056FF0122A1499C480CF03BFFD8F8B7
:1031D00000209F4B994853F8221023460A220CF0F6
:1031E000C5FF30682821FFF743FF38683721FFF714
:1031F0003FFF92480AF044FA3A6833689A4235DB56
:10320000944F3C68002C00F0E580022C00F0B9815E
:103210000D2191480CF0D6F990480CF081FF904BAD
:103220001B68002B00F0CB80012B00F0EC808D4C54
:103230008D480E210CF0C6F90BF0B0F8FEF7D2FF66
:103240000B218A480CF0BEF92068FEF7CBFF0B215A
:1032500087480CF0B7F93068FEF7C4FF0123AE21B0
:1032600076482B6009F0D8FFFEF748F92C68012C4E
:103270007FF472AFFDF7B4FD04200BF0BFF90446F4
:1032800003200BF0BBF914B9002800F01981794F25
:10329000794B3A681B689A42FFF65EAF774B704AEB
:1032A0001B681468B3FA83F35B09002C14BF002673
:1032B00003F00106012C14BF002403F001040BF0FD
:1032C0006DF8684B1B688342D4BF002004F00100F6
:1032D000002840F05B81002E40F05881FDF732FE5F
:1032E000FEF722FA564B664F1C68DFF8CC81DFF8F8
:1032F000CCA10BF053F8634A634B1268201A841A6E
:1033000024EAE47483FB04232344E017C0EBE320A6
:103310000DF084FD0DF0A8FB0EF096F85B4A5C4BB7
:10332000386002FB004483FB042323448146E017FA
:10333000C0EB63100DF072FD0DF096FB0EF084F8FB
:1033400003011A1AC31A04EB830492004FF4616359
:1033500003FB0929C8F800404C44092CCAF80000B6
:1033600024DD314602200BF025F9FFF77DFC494AA8
:10337000136823F01043136064200BF089F998F868
:1033800000309AF800203978434808F011F8434893
:1033900007F0D4FD012102200BF00CF94FF49670D8
:1033A0000BF076F93E4B1868FFF74EFE01233C22E6
:1033B000022122480AF05AF800232B60CCE6394B50
:1033C0002E4A31681B681268264C0B441A4432603E
:1033D00023602DE70A21344802F0ACFE2146324832
:1033E00002F080FC0E21304802F07CFC21462E4881
:1033F00002F078FC0A212C4802F074FC2A4802F002
:10340000ABFE3C6801E71D4B1A68002A40F0C880FB
:10341000264A33681168134C254803F5A83202F593
:10342000C0720B4432602360FDF70EFB2068FEF78C
:10343000D9FEFDE64C0A00202C4F0020E45300206A
:10344000344F00201494010020940100DC9401000A
:10345000885400207C0A002028940100D4FFFF1F1C
:103460002054002064530020489401005894010027
:10347000649401003C4F00201C5400206CFAFF1F94
:103480002454002004FAFF1FC5B3A291F0F1FFFFFE
:103490008988888880F00240E4520020500A002089
:1034A00058FAFF1F60FAFF1FC85500202C53002058
:1034B00038940100E054002084540020A0530020E0
:1034C0003D4B3E4C1B683E4A3E4E3F4DA06C5B025E
:1034D000002103F12407A6F8B41157609362A5F800
:1034E000B411002845D005F09FFBA06C334B002899
:1034F00037D02C22324905F0A5FC344806F044FFB1
:1035000001233C220221324809F0B0FF64200BF075
:10351000BFF82F4809F078FE01212D4809F09AF8EC
:1035200002212B4809F090F800221146284809F0A2
:1035300087F80722274926480CF084FD24480CF020
:10354000EFFD0121224809F07FF81022224920488E
:103550000CF078FD1E480CF0E3FD1D480AF090F8D1
:10356000FEE7D86C0028C8D02C22154904F06AF870
:10357000C3E7E06C0028C0D00022002303F044FA27
:10358000B3E70B210E20FFF74BFB41E60F4806F097
:10359000FBFEFEF7C9F8FDF7F3FC00233B60DBE51B
:1035A0000E4B31681B680E4C0B441A44326023608A
:1035B000FEF75EFE3CE600BF3C4F0020305400208A
:1035C000F45400204C4F00200851002040540020AB
:1035D000E4530020709401007894010060FAFF1F0A
:1035E000645300202DE9F04F9BB0FEF7F3FEFEF789
:1035F00029F80AF0D3FEAE4DAE4C2860AE48AF4F6E
:10360000DFF8E09209F000FE0121AB4809F022F852
:103610000221A94809F018F800221146A64809F02D
:103620000FF80822A649A4480CF00CFD0121A2487D
:1036300009F00AF8102200219F4809F001F812222F
:10364000A0499D480CF0FEFC9B480CF069FD072149
:103650009D4802F09DFF0E219B4803F025F80C21A8
:10366000994802F0DDFF00260DF1380A4FF0000BFB
:10367000964847F804BB0CF053FD9448DFF83482B9
:103680000CF04EFD0136052191480BF09BFF3146B1
:103690008E480CF0EDFC8D480CF042FD314686481A
:1036A0000CF0E6FC04228B4983480CF0CBFC8248EA
:1036B00009F0E6FF59F8043B874A0992DBB28DF81E
:1036C00020308DF821B0CDF828B008AA07CA0DF136
:1036D0002C0E8EE807008DF82C307F4B0C938DF864
:1036E0002DB0CDF834B09EE807008AE80700109BA3
:1036F00000939AE80C0008F29C4108F5916006F0EE
:103700005DFF94F8953408F59162C4F88424002B89
:1037100048D01C2171480BF055FF6C480CF000FD9F
:1037200006226F4964480CF08DFC63480CF0F8FCED
:10373000614809F0A5FF042E98D16A4B664F93F8B3
:1037400000E08DF844E000268DF84560139612974E
:1037500011AB93E8070014AB83E807008DF85160C4
:1037600016968DF850E0159793E8070017AB83E89D
:1037700007005D49199A00920CCBA1F1140006F0E4
:103780001DFF94F89564594BC4F88434002E00F062
:10379000BB800B22564948480CF054FC464809F0BF
:1037A0006FFFFEE708F59161404606F053FE0028E2
:1037B000AFD0D8F87804002870D006F073FC8046AB
:1037C00008214C480BF0FEFE414640480CF050FCEE
:1037D0003E480CF0A5FC40460DF088FF46490DF030
:1037E000D9FFD4F87834334A8046002B00F0788132
:1037F00018790DF077FF014640460DF0CBFF0EF033
:10380000B5F98046D4F8840407F06AF80DF06AFF31
:1038100039490DF0BFFF0EF0A9F90A218346374858
:103820000BF0D0FE002359460A2228480CF09EFCDB
:1038300026480CF075FCB8F1C70F8CBFA8F1C8037F
:10384000002347F8043C11212D480BF0BBFE57F82C
:10385000041C1E4800230A220CF088FC1B480CF0B4
:103860005FFC002357F8041C13480A220CF07EFC6E
:103870000122244910480CF0E5FB594600230A2296
:103880000D480CF073FC0C480CF04AFC0A4809F097
:10389000F7FE4FF47A700AF0FBFE4CE7D8F87C0490
:1038A000002801F0C68204F029FC804688E700BFAA
:1038B000804A0020844A0020E4530020E454002081
:1038C0008C94010098940100A0FAFF1FD4FFFF1F01
:1038D00020940100AC94010080F0FA02E49401000D
:1038E0000495010070530020204F00200C4F002051
:1038F0000C950100B4940100BD37063AC094010054
:10390000CC940100E09401009A49A1F5916006F081
:10391000A1FD00283FF43DAFFEF738F9FDF792FE18
:10392000FEF7D0FD944B1A68944B9A4201F2CB8279
:10393000934A924B12689A4201F2BC82914B1B78D7
:10394000172B01F2AE82904B1B783B2B01F2A08229
:103950008E4B1B78172B01F292828D4B1B783B2BE1
:1039600001F284828B4F3B68012B05D90023194655
:103970000C203B600AF07EFB874B1B68072B01F293
:103980006C82864B1A78082A01F25F82844B1B688E
:103990000F2B01F25182834E834C0AF0FFFC2B68FF
:1039A0003060C31AB3F5167FD4BF0023012304206F
:1039B00002930AF023FE3B687C4A012B0CBF0823CC
:1039C00007231360002800F09A8003200AF016FEF7
:1039D000002800F0BD8008200AF010FE002800F04A
:1039E000A180734809F010FC0121714808F032FEF3
:1039F00002216F4808F028FE002211466C4808F0AA
:103A00001FFE02216A4808F01FFE2368694A52F827
:103A1000238040460FF074F94146024664480CF09A
:103A200011FB63480CF07CFB0121614808F00CFE9F
:103A30002368614A52F8238040460FF061F94146FD
:103A400002465B480CF0FEFA59480CF069FBFEF7A1
:103A5000EFF90121564808F0F7FD0022642154488F
:103A600008F0EEFD4FF000094FF0080810200AF0B2
:103A7000E5F90DF03BFE4FF06A510DF08BFE01466B
:103A800048460DF07FFDB8F101088146EED14B4963
:103A90000DF080FE4FF078510DF07CFE0DF0D0F966
:103AA0004FF001080B460246CDF8008040480CF06C
:103AB0009FFB424642493E480CF0C4FA0AF06EFCB5
:103AC0003721FFF7D5FA3A4809F0DAFD0A200AF063
:103AD000DFFD029B002B3FF460AF1BB0BDE8F08F11
:103AE000D2F87C34002B01F0F78193F83D340120AB
:103AF00098400DF0F7FD7EE60A200AF0C9FD04208B
:103B00000AF07CFD0028F7D0284A23681168264A6D
:103B100001338B422360A4BF0023136055E70A20C2
:103B20000AF0B6FD08200AF069FD0028F7D02368E6
:103B3000072B00F2A882DFE813F05B0462004C025E
:103B4000D6014001E9049F04D5000A200AF0A0FD37
:103B500003200AF053FD0028F7D02368124A013BE6
:103B6000002B2360BFF637AF104B1B68013B13607F
:103B700031E700BF0C4F002060FAFF1FA086010054
:103B80006CFAFF1F780A0020DC540020A4530020A8
:103B9000384F00202054002058FAFF1F5CFAFF1F06
:103BA00000FAFF1F2C4F00206853002074FAFF1FFB
:103BB000E453002038FAFF1F78FAFF1FCDCCBC4039
:103BC000E4930100AD490DF0E5FD4FF078510DF0A3
:103BD000E1FD0DF035F94FF001080B460246CDF836
:103BE0000080A7480CF004FB4246A649A4480CF00C
:103BF00029FAA34809F044FD02200AF049FD0820F3
:103C00000AF0FCFC0128804640F058829E4B4FF49D
:103C1000616201461868FEF7A9F89B4B1860984846
:103C200009F0F2FA4146964808F014FD0221944842
:103C300008F00AFD00221146914808F001FD072214
:103C400092498F480CF0FEF98D480CF069FA8E4BC2
:103C50008B4819680CF00CFA42468D4988480CF0E4
:103C6000F1F987480CF05CFAFEF7E2F84146844827
:103C700008F0EAFC00226421814808F0E1FC4FF0E2
:103C800000094FF0080810200AF0D8F80DF02EFDBA
:103C90004FF06A510DF07EFD014648460DF072FC72
:103CA000B8F101088146EED18CE774490DF072FD40
:103CB0004FF078510DF06EFD0DF0C2F84FF0010895
:103CC0000B460246CDF800806D480CF091FA424652
:103CD0006C496B480CF0B6F9694809F0D1FC022038
:103CE0000AF0D6FC08200AF089FC0128804640F042
:103CF0000B82684B17211878FCF7F0FD654B1870A4
:103D00005F4809F081FA41465D4808F0A3FC0221B2
:103D10005B4808F099FC00221146594808F090FCD5
:103D200007225D4956480CF08DF955480CF0F8F91A
:103D300058495348097800230A220CF017FAFEF775
:103D400077F841464E4808F07FFC002264214C4839
:103D500008F076FC4FF000094FF0080810200AF038
:103D60006DF80DF0C3FC4FF06A510DF013FD0146E4
:103D700048460DF007FCB8F101088146EED194E702
:103D80003E490DF007FD4FF078510DF003FD0DF0A9
:103D900057F84FF001080B460246CDF8008038482E
:103DA0000CF026FA4246374935480CF04BF93448B6
:103DB00009F066FC02200AF06BFC08200AF01EFCE9
:103DC0000128804640F00883344B0F211868FCF727
:103DD00085FD324B1860FDF735FC294809F014FACF
:103DE0004146274808F036FC0221254808F02CFC03
:103DF00000221146224808F023FC052228492048C9
:103E00000CF020F9254B1E4819680CF031F91C48BC
:103E10000CF086F9234B18680DF012F84FF0020AE7
:103E20000B460246CDF800A015480CF0E1F95246C9
:103E30001D4913480CF006F9FDF7FAFF41461048FA
:103E400008F002FC002264210D4808F0F9FB4FF055
:103E500000094FF00808102009F0F0FF0DF046FCB3
:103E60004FF06A510DF096FC014648460DF08AFB72
:103E7000B8F101088146EED182E700BFCDCCBC404D
:103E8000E4530020E493010060FAFF1F389501001D
:103E900040950100780A0020B095010000FAFF1F4C
:103EA000609501006C5300209C93010089490DF03E
:103EB00071FC4FF078510DF06DFC0CF0C1FF4FF02C
:103EC00001080B460246CDF8008083480CF090F9BB
:103ED0004246824980480CF0B5F87F4809F0D0FB93
:103EE00002200AF0D5FB08200AF088FB0128804652
:103EF00040F0D9807A4B08211868FCF7EFFC784B2A
:103F00001860754809F080F94146734808F0A2FB33
:103F10000221714808F098FB002211466E4808F013
:103F20008FFB70496C4804220CF08CF86A480CF046
:103F3000F7F86B4A6C4B126853F822000DF0D6FB71
:103F40006A490DF0DBFC0CF07BFF02460B46624831
:103F500067490CF0FDF8FDF76BFF41465E4808F03D
:103F600073FB002264215C4808F06AFB4FF00009F3
:103F70004FF00808102009F061FF0DF0B7FB4FF07B
:103F80006A510DF007FC014648460DF0FBFAB8F106
:103F900001088146EED189E74E490DF0FBFB4FF059
:103FA00078510DF0F7FB0CF04BFF4FF001080B467A
:103FB0000246CDF8008048480CF01AF942464749BD
:103FC00045480CF03FF8444809F05AFB02200AF03B
:103FD0005FFB08200AF012FB012880464CD1454BBC
:103FE00045491868FCF77AFC424B18603A4809F0DA
:103FF0000BF94146384808F02DFB0221364808F0FD
:1040000023FB00221146344808F01AFB06223B49E4
:1040100031480CF017F830480CF082F8354B2E4838
:1040200019680CF025F8424635492B480CF00AF87F
:1040300029480CF075F8FDF7FBFE4146264808F0CC
:1040400003FB00226421244808F0FAFA4FF000092B
:104050004FF00808102009F0F1FE0DF047FB4FF07B
:104060006A510DF097FB014648460DF08BFAB8F106
:1040700001088146EED18FE708200AF0BFFA002838
:10408000FAD000232360DFF87C8098F80030002B02
:104090003FF4A7ACFEF716FA002388F800300AF0C8
:1040A0007DF928609DE408200AF0A8FA0028E8D1EC
:1040B00008200AF0A3FA0028F5D0E2E708200AF069
:1040C0009DFA0028DDD108200AF098FA0028F5D0E2
:1040D000D7E700BFCDCCBC40E4530020E4930100FF
:1040E00058FAFF1F4C95010014FAFF1F00007A4494
:1040F000549501006CFAFF1F8051010044950100A6
:1041000040950100304F002008200AF077FA00287F
:10411000FAD008200AF072FA0128804668D1CB4B09
:104120003B211878FCF7DAFBC84B1870C84809F037
:104130006BF84146C64808F08DFA0221C44808F0E1
:1041400083FA00221146C24808F07AFA0822C149CF
:10415000BF480BF077FFBE480BF0E2FFBB49BC48FD
:10416000097800230A220CF001F8FDF761FE4146B0
:10417000B74808F069FA00226421B54808F060FAEF
:104180004FF000094FF00808102009F057FE0DF01D
:10419000ADFA4FF06A510DF0FDFA014648460DF0B8
:1041A000F1F9B8F101088146EED1AB490DF0F2FA10
:1041B0004FF078510DF0EEFA0CF042FE4FF001088E
:1041C0000B460246CDF80080A1480CF011F842469B
:1041D000A2499F480BF036FF9D4809F051FA022092
:1041E0000AF056FA08200AF009FA0128804696D00B
:1041F00008200AF003FA0028FAD008200AF0FEF995
:104200000128804668D1964B17211878FCF766FB89
:10421000934B18708E4808F0F7FF41468C4808F021
:1042200019FA02218A4808F00FFA0022114688483C
:1042300008F006FA06228B4985480BF003FF8448F4
:104240000BF06EFF86498248097800230A220BF0A2
:104250008DFFFDF7EDFD41467D4808F0F5F90022A0
:1042600064217B4808F0ECF94FF000094FF0080892
:10427000102009F0E3FD0DF039FA4FF06A510DF00E
:1042800089FA014648460DF07DF9B8F101088146EA
:10429000EED171490DF07EFA4FF078510DF07AFAB7
:1042A0000CF0CEFD4FF001080B460246CDF8008021
:1042B00067480BF09DFF4246684965480BF0C2FE17
:1042C000634809F0DDF902200AF0E2F908200AF05B
:1042D00095F90128804696D008200AF08FF9002829
:1042E000FAD008200AF08AF90128804668D15E4B8E
:1042F0003B211878FCF7F2FA5B4B1870544808F031
:1043000083FF4146524808F0A5F90221504808F0C1
:104310009BF9002211464E4808F092F907225349B2
:104320004B480BF08FFE4A480BF0FAFE4E494848C6
:10433000097800230A220BF019FFFDF779FD4146A9
:10434000434808F081F900226421414808F078F9D7
:104350004FF000094FF00808102009F06FFD0DF034
:10436000C5F94FF06A510DF015FA014648460DF0B7
:1043700009F9B8F101088146EED137490DF00AFA82
:104380004FF078510DF006FA0CF05AFD4FF001088D
:104390000B460246CDF800802D480BF029FF42461F
:1043A0002E492B480BF04EFE294809F069F90220EE
:1043B0000AF06EF908200AF021F90128804696D00B
:1043C00008200AF01BF900287FF45BAE08200AF0F1
:1043D00015F90028F4D054E608200AF00FF9002857
:1043E0007FF44FAE08200AF009F90028F4D048E61F
:1043F000174808F009FF0121154808F02BF90221A0
:10440000134808F021F900221146114808F018F964
:10441000FEF758F80A2216490D480BF013FE0C4817
:104420000BF07EFE01210A4808F00EF91322114913
:1044300007480BF007FE064809F022F94FF4FA602E
:104440000AF026F9012302931DE600BFDC54002088
:10445000E4530020B8950100CDCCBC40E4930100AA
:10446000A4530020C4950100384F0020CC950100D2
:104470001895010024950100DFF88C902AE0386837
:10448000FCF72CFA38601D4808F0BEFE41461B4878
:1044900008F0E0F80221194808F0D6F80022114689
:1044A000164808F0CDF80522154914480BF0CAFD4E
:1044B0003B6833B90422134910480BF0C3FDD9F807
:1044C0000030012B00F0AE840C4809F0D9F802202E
:1044D0000AF0DEF808200AF091F80128804601462B
:1044E000CDD008200AF08AF800287FF4CAAD082051
:1044F0000AF084F80028F4D0C3E500BFE45300209C
:1045000098950100A09501002054002008200AF091
:1045100075F80128DFF8F883DFF8F89340F0AB80F6
:104520003068DFF8F4A307F005F940F634024FF4E1
:10453000FA61C9F80000FDF719FCD9F80030CAF893
:104540000000984234D0D8F8000007F0E1F8059058
:10455000D8F8000007F094F88346D8F8000007F078
:10456000A1F80390D8F8000007F0AEF80490D8F84E
:10457000000007F0BBF80DF1680E9DF80C200EF856
:10458000502DDAF800300599049A8DF81D004E334D
:1045900070468DF81A108DF81E308DF81C208DF89D
:1045A00019B007F0DBF809F0FFFE09F0F7FE28600C
:1045B000D14808F029FE0121CF4808F04BF802212C
:1045C000CD4808F041F800221146CB4808F038F8F1
:1045D0000522CA49C8480BF035FDC7480BF0A0FDBD
:1045E00009F0DCFE07F0A6F80146C3480BF040FDD9
:1045F000FDF71EFC0121C04808F026F800226421C6
:10460000BD4808F01DF84FF0000B4FF0080A1020CD
:1046100009F014FC0DF06AF84FF06A510DF0BAF889
:10462000014658460CF0AEFFBAF1010A8346EED1BE
:10463000B3490DF0AFF84FF078510DF0ABF80CF036
:10464000FFFB4FF0010A0B460246CDF800A0AA4836
:104650000BF0CEFD5246AB49A7480BF0F3FCA64841
:1046600009F00EF802200AF013F8082009F0C6FF3E
:1046700001283FF455AF082009F0C0FF0028FAD008
:10468000082009F0BBFF0128DFF88482DFF88C9254
:10469000834640F0AA803068DFF884A207F026F84D
:1046A00059460C22C9F80000FDF760FBD9F800302C
:1046B000CAF80000984234D0D8F8000007F028F873
:1046C0000590D8F8000006F0DBFF8346D8F800001C
:1046D00006F0E8FF0490D8F8000006F0F5FF03901C
:1046E000D8F80000DAF800A007F024F80DF1680E01
:1046F00004990EF8501D00F14E0C059A039B8DF89D
:104700001A2070468DF81EC08DF81C308DF81DA043
:104710008DF819B007F022F809F046FE09F03EFEC8
:104720002860754808F070FD0121734807F092FF7A
:104730000221714807F088FF002211466E4807F0F9
:104740007FFF062270496C480BF07CFC6A480BF036
:10475000E7FC09F023FE06F0C9FF014666480BF0AE
:1047600087FCFDF765FB0121634807F06DFF002220
:104770006421614807F064FF4FF0000B4FF0080A16
:10478000102009F05BFB0CF0B1FF4FF06A510DF007
:1047900001F8014658460CF0F5FEBAF1010A8346CD
:1047A000EED157490CF0F6FF4FF078510CF0F2FFC4
:1047B0000CF046FB4FF0010A0B460246CDF800A074
:1047C0004D480BF015FD52464E494B480BF03AFC54
:1047D000494808F055FF022009F05AFF082009F067
:1047E0000DFF012883463FF456AF082009F006FF6D
:1047F0000028FAD0082009F001FF0128DFF8108115
:10480000DFF82091834640F0C6803068DFF818A1B9
:1048100006F05AFF59461F22C9F80000FDF7A6FA14
:10482000D9F80030CAF80000984235D0D8F8000016
:1048300006F06EFF0590D8F8000006F021FF8346D1
:10484000D8F8000006F02EFFDAF800100490D8F82F
:104850000000039106F04AFF8246D8F8000006F0F7
:1048600069FF0DF1680E049A0EF8502D00F14E0C00
:10487000059B03998DF81A3070468DF81EC08DF88F
:104880001C108DF81DA08DF819B006F067FF09F017
:104890008BFD09F083FD2860174808F0B5FC012165
:1048A000154807F0D7FE0221134807F0CDFE00227D
:1048B0001146114807F0C4FE042214490E480BF0BB
:1048C000C1FB0D480BF02CFC09F068FD06F0FCFE66
:1048D000014609480BF0CCFBFDF7AAFA0121064876
:1048E00007F0B2FE00226421034807F0A9FE4FF052
:1048F000000B4FF0080A19E0E4530020689501000E
:10490000CDCCBC40E4930100709501007895010086
:104910002C4F0020A054002080530020D8540020A9
:1049200030530020DC52002024530020102009F0D6
:1049300085FA0CF0DBFE4FF06A510CF02BFF0146BC
:1049400058460CF01FFEBAF1010A8346EED1D74952
:104950000CF020FF4FF078510CF01CFF0CF070FAB7
:104960004FF0010A0B460246CDF800A0D0480BF0EC
:104970003FFC5246CF49CE480BF064FBCC4808F0D0
:104980007FFE022009F084FE082009F037FE01288E
:1049900083463FF43AAF082009F030FE0028FAD0F1
:1049A000082009F02BFE0128DFF81483DFF81493A8
:1049B00040F0A380306806F0ABFE1721C9F8000074
:1049C000FBF78CFFD9F800309842824632D0D8F8F5
:1049D000000006F055FE0590D8F8000006F062FED3
:1049E0000490D8F8000006F06FFE8346D8F8000067
:1049F00006F07CFE0390D8F8000006F09BFE0DF157
:104A0000680E04990EF8501D00F14E0C059A039B98
:104A10008DF8192070468DF81EC08DF81D308DF868
:104A20001CB08DF81AA006F099FE09F0BDFC09F043
:104A3000B5FC28609E4808F0E7FB01219C4807F080
:104A400009FE02219A4807F0FFFD0022114698480E
:104A500007F0F6FD0522984995480BF0F3FA9448C3
:104A60000BF05EFB09F09AFC06F052FE01469048FE
:104A70000BF0FEFAFDF7DCF901218D4807F0E4FDAB
:104A8000002264218A4807F0DBFD4FF0000B4FF055
:104A9000080A102009F0D2F90CF028FE4FF06A51F4
:104AA0000CF078FE014658460CF06CFDBAF1010A94
:104AB0008346EED17D490CF06DFE4FF078510CF03D
:104AC00069FE0CF0BDF94FF0010A0B460246CDF825
:104AD00000A077480BF08CFB5246764974480BF0E7
:104AE000B1FA734808F0CCFD022009F0D1FD08208E
:104AF00009F084FD01283FF45DAF082009F07EFD38
:104B00000028FAD0082009F079FD0128DFF8B081EB
:104B1000DFF8B49140F0A9803068DFF8B0A106F06A
:104B2000AFFD3B21C9F80000FBF7D8FED9F80030F3
:104B3000CAF80000984235D0D8F8000006F0E8FD29
:104B4000DAF800300590D8F80000049306F0AAFDCA
:104B50000390D8F8000006F0B7FD8346D8F80000AF
:104B600006F0C4FD8246D8F8000006F0E3FD0DF122
:104B7000680E03990EF8501D00F14E0C059A049B27
:104B80008DF81A2070468DF81EC08DF819308DF8FA
:104B90001DA08DF81CB006F0E1FD09F005FC09F040
:104BA000FDFB2860424808F02FFB0121404807F038
:104BB00051FD02213E4807F047FD002211463C48C6
:104BC00007F03EFD07223D4939480BF03BFA3848D3
:104BD0000BF0A6FA09F0E2FB06F052FD014634485C
:104BE0000BF046FAFDF724F90121314807F02CFDBE
:104BF000002264212E4807F023FD4FF0000B4FF0F8
:104C0000080A102009F01AF90CF070FD4FF06A51F3
:104C10000CF0C0FD014658460CF0B4FCBAF1010A94
:104C20008346EED121490CF0B5FD4FF078510CF0E0
:104C3000B1FD0CF005F94FF0010A0B460246CDF824
:104C400000A01B480BF0D4FA52461A4918480BF042
:104C5000F9F9174808F014FD022009F019FD0820A1
:104C600009F0CCFC01283FF457AF082009F0C6FC3E
:104C70000028FAD0082009F0C1FC0128DFF84080A4
:104C8000DFF84C9040F0C1803068DFF848A006F0B3
:104C900009FD3B21C9F80000FBF720FED9F80030E0
:104CA000CAF8000098424DD016E000BFCDCCBC4001
:104CB000E4530020E49301008095010088950100F1
:104CC0002C4F0020E052002084530020284F002069
:104CD000A854002028530020D8F8000006F018FD42
:104CE0000590D8F8000006F0CBFCDAF8001004912B
:104CF0008346D8F8000006F0E7FC8246D8F80000AA
:104D000006F0F4FC0390D8F8000006F013FD0DF156
:104D1000680E04990EF8501D00F14E0C059A039B85
:104D20008DF81A2070468DF81EC08DF81D308DF854
:104D30001CA08DF819B006F011FD09F035FB09F043
:104D40002DFB2860664808F05FFA0121644807F0EF
:104D500081FC0221624807F077FC0022114660487E
:104D600007F06EFC07225F495D480BF06BF95C4869
:104D70000BF0D6F909F012FB06F094FC01465848F6
:104D80000BF076F9FDF754F80121554807F05CFC6B
:104D900000226421524807F053FC4FF0000B4FF003
:104DA000080A102009F04AF80CF0A0FC4FF06A51F4
:104DB0000CF0F0FC014658460CF0E4FBBAF1010A95
:104DC0008346EED148490CF0E5FC4FF078510CF0E9
:104DD000E1FC0CF035F84FF0010A0B460246CDF825
:104DE00000A03F480BF004FA524640493C480BF003
:104DF00029F93B4808F044FC022009F049FC08204E
:104E000009F0FCFB01283FF43FAF082009F0F6FB56
:104E100000287FF436A9082009F0F0FB0028F4D020
:104E2000FFF72FB9052232492D480BF00BF9FFF798
:104E30004BBB8046FEF7C4BC04232E4A19460F2004
:104E4000136009F017F9FEF7A6BD082211460E20DF
:104E50001A7009F00FF9FEF799BD0823264A194682
:104E60000D20136009F006F9FEF78BBD0023234ADD
:104E700019460B20137009F0FDF8FEF773BD0023EF
:104E80001F4A19460A20137009F0F4F8FEF765BDB1
:104E900000231C4A19460920137009F0EBF8FEF7AD
:104EA00057BD0023184A19460820137009F0E2F88C
:104EB000FEF749BD3C23154A194604201360FDF74F
:104EC000E9FAFEF73BBD3C23114A30461946136010
:104ED000FDF7E0FAFEF72CBD0020FEF78CBC00BF0A
:104EE000E453002090950100CDCCBC40E493010038
:104EF000A895010000FAFF1F58FAFF1F384F002045
:104F0000A4530020DC540020780A00206CFAFF1F14
:104F100060FAFF1F2DE9F84FD04BD14A1B68D149E9
:104F200013600968D04BD14F516000241421152221
:104F30000A260F254FF4FA709960DA605D601E60F2
:104F400009F0A6FB64203C6009F0A2FB4FF430534B
:104F50003B60642009F09CFB4FF434533B606420B9
:104F600009F096FBC24BC3481968DFF85883C24D5D
:104F7000234610220BF0FAF8BE480BF0D1F839683E
:104F8000BC48234610220BF0F1F8BA480BF0C8F8E1
:104F9000BA4BB8481968102223460BF0E7F8B54819
:104FA0000BF0BEF8D8F80010B248234632460BF09A
:104FB000DDF8B0480BF0B4F84FF47A7009F068FBF4
:104FC000D8F80010AB48234632460BF0CFF8A9487A
:104FD0000BF0A6F84FF47A7009F05AFB23463246DC
:104FE000D8F80010A3480BF0C1F8A2480BF098F8CD
:104FF000A34800F01DFF0121062009F00DFB01214F
:10500000062009F0D7FA2146102009F005FB2046BA
:1050100008F088FE0121022009F0FEFA0121022099
:1050200009F0C8FA0221042009F0F6FA022103204F
:1050300009F0F2FA0221082009F0EEFA09F0AEF9BF
:10504000904B2860984240F38E8101233C2202213C
:105050008D488E4EDFF870828D4C8E4F08F006FA28
:105060008C2009F015FB884808F0CEF8012186480D
:1050700007F0F0FA0221844807F0E6FA0022114610
:10508000814807F0DDFA0A2283497F480AF0DAFFF7
:105090007D480BF045F87C4808F0F2FA7A4808F0B1
:1050A000B3F80121784807F0D5FA0221764807F0D5
:1050B000CBFA00221146744807F0C2FA0A22764958
:1050C00071480AF0BFFF70480BF02AF86E4808F0EC
:1050D000D7FA6E2171480AF0C9FBD6F8009058F84B
:1050E00029A050460CF002FB102120605046FDF72D
:1050F00051FA634800F09CFE4846FDF7E9FDFEF7D3
:1051000071FA3668DFF8C49158F8268040460CF0F2
:10511000EDFA102120604046FDF73CFA584800F0B7
:1051200087FE3046FDF7D4FDFCF740FA564808F0FC
:105130006BF80121544807F08DFA0221524807F01C
:1051400083FA00221146504807F07AFA3B683B2B5D
:1051500007DDB3F5967FB4BF3C234FF49673C9F8CF
:10516000003009F01BF9DFF868814D49D9F80030AB
:105170004C4ED8F80020096890FBF3FE286003FB32
:105180000E334948336001291344036000F0EF8077
:1051900010460CF0ABFA2168DFF838B1DFF838912F
:1051A0000CF0F8FA4FF06E510CF0F4FA4FF0745125
:1051B0000CF0F0FA0BF044FE0BF0CEFB00223B4B60
:1051C0000BF092FE0CF040F9394B3A681C68394BF1
:1051D000141B24EAE47A83FB0A23534442004FEA77
:1051E000EA71CBF80020C1EBE3200BF017FE0BF0C7
:1051F0003BFC0CF029F9304C304BC9F8000004FBA3
:1052000000A483FB04232344E017C0EB63100BF0DE
:1052100005FE0BF029FC0CF017F9DFF8C0A0DFF851
:10522000C0B00346A0EB001004EB8004102124481A
:10523000CBF80030CAF800400AF0C4F9D9F80010E1
:105240000C480AF015FFDBF800100A480AF010FFBE
:10525000DAF8001007480AF00BFF43E058800440DA
:105260005C5300205C8004407053002010D0034049
:1052700014D00340D4FFFF1F2C4F002018D0034050
:10528000C85500207FC18556E453002058FAFF1FFF
:10529000805400206CFAFF1FD49501000082FF1F8C
:1052A00020540020344F0020645300200000404070
:1052B00004FAFF1FC5B3A291F0F1FFFF8988888827
:1052C000E095010000D0034014FAFF1F70FAFF1FA1
:1052D00060FAFF1F1C540020245400208454002036
:1052E000A053002024480AF01BFF082123480AF09D
:1052F00069F9D8F8001020480AF0BAFE1E480AF0F2
:105300000FFF08211E480AF05DF939681A480AF0B3
:10531000AFFE19480AF004FF0E211A480AF052F9AC
:105320002868FCF75FFF0C2117480AF04BF930683A
:10533000FCF758FF33682C6814481C1B15210AF031
:1053400041F921460C480AF093FE0B480AF0E8FEAA
:105350000F4B10494FF0FF3200201A60BDE8F84FA4
:105360000860FCF7E1B90C4809F01EF86DE6FCF79F
:105370007FFFD8F800200BE7D4FFFF1FF495010052
:1053800000960100489401000C9601001C96010053
:10539000A45400204C0A002080C18556002070478C
:1053A00000207047F8B5C34C01260546067120461B
:1053B00000F03EFD052009F06BF9297A204600F047
:1053C000E3FD2046002100F08DFC2046302100F056
:1053D00089FC2046402100F085FC6021204600F039
:1053E00081FC204600F0B8FE297A204600F0CCFD72
:1053F0002046002100F076FC2046262100F072FCB9
:105400002046002100F06EFC6C21204600F06AFC72
:10541000204600F0A1FE297A204600F0B5FD204686
:10542000002100F05FFC2046282100F05BFC3146A3
:10543000204600F057FCF221204600F053FC2046A5
:1054400000F08AFE297A204600F09EFD20460021C9
:1054500000F048FC20462C2100F044FC20460F219F
:1054600000F040FC2221204600F03CFC204600F0E9
:1054700073FE297A204600F087FD2046002100F0C7
:1054800031FC20463C2100F02DFC2046442100F058
:1054900029FC4621204600F025FC204600F05CFE59
:1054A00040F23713EB80297A204600F06DFD20464C
:1054B000002100F017FC2046242100F013FC3146A7
:1054C000204600F00FFC3721204600F00BFC204660
:1054D00000F042FE297A204600F056FD20460021C9
:1054E00000F000FC2046302100F0FCFB204640216B
:1054F00000F0F8FBFF21204600F0F4FB204600F00E
:105500002BFE297A204600F03FFD2046002100F0C6
:10551000E9FB2046022100F0E5FB2046002100F0D7
:10552000E1FB7321204600F0DDFB204600F014FE75
:105530004FF4C87009F0ACF8297A204600F024FD39
:105540002046002100F0CEFB20462E2100F0CAFBB1
:1055500020461D2100F0C6FB1D21204600F0C2FBA5
:10556000204600F0F9FD297A204600F00DFD204686
:10557000002100F0B7FB2046042100F0B3FB2046D9
:10558000002100F0AFFB0421204600F0ABFB2046D9
:1055900000F0E2FD297A204600F0F6FC20460021CA
:1055A00000F0A0FB2046062100F09CFB314620467F
:1055B00000F098FB3021204600F094FB204600F0DC
:1055C000CBFD297A204600F0DFFC2046002100F0C8
:1055D00089FB20460A2100F085FB2046002100F0CF
:1055E00081FB1021204600F07DFB204600F0B4FD39
:1055F000297A204600F0C8FC2046002100F072FB0A
:1056000020460E2100F06EFB2046002100F06AFBD0
:105610000021204600F066FB204600F09DFD297A1F
:10562000204600F0B1FC2046002100F05BFB204644
:10563000102100F057FB20463C2100F053FB3C2199
:10564000204600F04FFB204600F086FD297A2046D8
:1056500000F09AFC2046002100F044FB2046222165
:1056600000F040FB20467F2100F03CFB7F212046DC
:1056700000F038FB3627204600F06EFD297AEF80D7
:10568000204600F081FC2046002100F02BFB204644
:10569000242100F027FB2046002100F023FB39469F
:1056A000204600F01FFB204600F056FD6E7230468B
:1056B000F8BD00BFC85500200B462DE9F041454913
:1056C000054618460CF066F843490BF05BFF0CF0FA
:1056D0004DFA044600284CD080281FD92B7900248D
:1056E00026462BBB297A3D4800F04EFC00213B4862
:1056F00000F0F8FA2221394800F0F4FA3146374830
:1057000000F0F0FA2146354800F0ECFA334800F09A
:1057100023FDB0FA80F04009BDE8F081C0F18004BB
:105720002B7944EA0424C4F30726E4B2002BD9D031
:10573000EF88297A294827F010074FF00008EF80FA
:1057400085F8048000F020FC4146244800F0CAFAA5
:105750002421224800F0C6FA390A204800F0C2FA93
:1057600007F0EF011D4800F0BDFA1C4800F0F4FC02
:10577000B8E701232B71297A184800F005FC21466F
:10578000164800F0AFFA2221144800F0ABFA7F214E
:10579000124800F0A7FA7F21104800F0A3FA0F4842
:1057A00000F0DAFCEE88297A0C4846F01006B6B212
:1057B000EE8000F0E9FB2146084800F093FA24212E
:1057C000064800F08FFA310A044800F08BFAF1B273
:1057D00099E700BF00000143EE7CFF3EC855002062
:1057E00070B505460C4619B101293BD0002070BDAB
:1057F000017A424800F0C8FB2146404800F072FAA6
:1058000020213E4800F06EFA21463C4800F06AFA3A
:1058100055213A4800F066FA384800F09DFC0646EB
:105820000028E3D1EC88297A344844F00404A4B277
:10583000EC8000F0A9FB3146304800F053FA2421F7
:105840002E4800F04FFA210A2C4800F04BFAE1B242
:105850002A4800F047FA294800F07EFCB0FA80F0B0
:10586000400970BD017A254800F08EFB00212348D5
:1058700000F038FA2A21214800F034FA21461F4866
:1058800000F030FA73211D4800F02CFA1B4800F09C
:1058900063FC04460028A9D1297A184800F074FB5B
:1058A0002146164800F01EFA2021144800F01AFA8A
:1058B0002146124800F016FA8821104800F012FA2A
:1058C0000E4800F049FC044600288FD1EE88297A62
:1058D0000A4826F00406EE8000F056FB21460748F1
:1058E00000F000FA2421054800F0FCF9310A0348D1
:1058F00000F0F8F906F0FB01AAE700BFC855002048
:1059000010B504460AF014FA204610BD024A0349B5
:1059100003480CF011BB00BFFCF9FF1F0159000048
:10592000205500201B4A1C4B11681C48096970B4A3
:1059300099421279027009D2194A127832B3194A7F
:105940004FF08041116003F5807402E01C46A3F51E
:105950008073154A154912680D68AAB1A5B1144E95
:105960003088402810D841000A444030294402328F
:105970000231308033F9040B22F8020F9C4233F9D4
:10598000020C21F8020FF5D870BC704703F5807443
:10599000DFE700BF30550020B8F2FF1F1F80004036
:1059A0002A55002008E200E0385500202C55002040
:1059B00028550020F8B5064609F088FF0446E8B1EE
:1059C00009F084FF054600283AD072B61F4B1A88AA
:1059D0007F2A19D8002C31D01D490A6842B162B61D
:1059E000204609F0C7FF2846BDE8F84009F0C2BFCD
:1059F00018480C601A80056062B6F8BD054672B69C
:105A0000124B1A887F2AE5D9114A12491768146087
:105A100000220C681A800D6062B63946304609F0E3
:105A2000D3FF384609F0A6FF30462146012209F08F
:105A3000CBFF2046BDE8F84009F09CBF62B6F8BD38
:105A4000204609F097FF2C46BFE700BF28550020ED
:105A5000385500202C550020F8B5284C284E2046FB
:105A600001210AF0C7F800F083F8264B264A2748A0
:105A70004FF480611960236800211A6099802279AF
:105A8000186102F1804202F5043240F20110D88020
:105A90009E614FF48075022006278E26DD82D96034
:105AA000DD8398609F839882117016700AF048F821
:105AB0001749184B2279184F08701A7039682279E3
:105AC000164C174D174E41F0124141F00101531190
:105AD00039609B00206803F1604302F1100703F571
